:100000000C9461000C947E000C947E000C947E0095
:100010000C947E000C947E000C947E000C947E0068
:100020000C947E000C947E000C947E000C947E0058
:100030000C947E000C947E000C947E000C947E0048
:100040000C94D8010C947E000C947E000C947E00DD
:100050000C947E000C947E000C947E000C947E0028
:100060000C947E000C947E00000000002400270009
:100070002A0000000000250028002B0000000000DE
:1000800023002600290004040404040404040202DA
:100090000202020203030303030301020408102007
:1000A0004080010204081020010204081020000012
:1000B0000008000201000003040700000000000027
:1000C000000011241FBECFEFD8E0DEBFCDBF11E08E
:1000D000A0E0B1E0E6E0FAE002C005900D92A8349D
:1000E000B107D9F721E0A8E4B1E001C01D92AB351A
:1000F000B207E1F70E9422020C9401050C94000063
:10010000833081F028F4813099F08230A9F008958D
:100110008730A9F08830C9F08430B1F48091800034
:100120008F7D03C0809180008F7780938000089539
:1001300084B58F7784BD089584B58F7DFBCF809182
:10014000B0008F778093B00008958091B0008F7DCC
:10015000F9CFCF93DF93282F30E0F901E255FF4F1D
:100160008491F901E656FF4FD491F901EA57FF4F08
:10017000C491CC23A1F081110E948000EC2FF0E00B
:10018000EE0FFF1FE458FF4FA591B491EC91ED23C2
:1001900081E090E009F480E0DF91CF91089580E064
:1001A00090E0FACF1F93CF93DF93282F30E0F9012F
:1001B000E255FF4F8491F901E656FF4FD491F901C2
:1001C000EA57FF4FC491CC23A9F0162F81110E944A
:1001D0008000EC2FF0E0EE0FFF1FEE58FF4FA591CF
:1001E000B4918FB7F894EC91111108C0D095DE232B
:1001F000DC938FBFDF91CF911F910895DE2BF8CF55
:10020000CF93DF9390E0FC01E656FF4F24918A578D
:100210009F4FFC0184918823D1F090E0880F991FB3
:10022000FC01E859FF4FA591B491FC01EE58FF4F36
:10023000C591D49161110EC09FB7F8948C91E22FB3
:10024000E0958E238C932881E223E8839FBFDF9182
:10025000CF9108958FB7F894EC91E22BEC938FBF78
:10026000F6CF3FB7F8948091570190915801A09133
:100270005901B0915A0126B5A89B05C02F3F19F02E
:100280000196A11DB11D3FBFBA2FA92F982F882716
:10029000BC01CD01620F711D811D911D42E0660FF1
:1002A000771F881F991F4A95D1F708958F929F92C3
:1002B000AF92BF92CF92DF92EF92FF926B017C01DF
:1002C0000E9431014B015C01C114D104E104F1042D
:1002D000B9F00E943101681979098A099B09683EC1
:1002E00073408105910580F321E0C21AD108E1082D
:1002F000F10888EE880E83E0981EA11CB11CE4CFA3
:10030000FF90EF90DF90CF90BF90AF909F908F9035
:100310000895EF92FF920F931F93CF93DF93CDB782
:10032000DEB72C970FB6F894DEBF0FBECDBF61E0ED
:1003300084E00E94D20061E087E00E94D20061E088
:100340008AE00E94D20061E08CE00E94D2008CE042
:10035000E3E0F1E0DE01119601900D928A95E1F75C
:100360008E010F5F1F4F7E018DE0E80EF11C0E1510
:100370001F0541F0F80180810E5F1F4F60E00E9471
:10038000D200F5CF68EB7BE080E090E00E94560160
:1003900060E084E02C960FB6F894DEBF0FBECDBFB0
:1003A000DF91CF911F910F91FF90EF900C94D200AD
:1003B0001F920F920FB60F9211242F933F938F939A
:1003C0009F93AF93BF938091530190915401A0915B
:1003D0005501B09156013091520123E0230F2D3782
:1003E00058F50196A11DB11D209352018093530130
:1003F00090935401A0935501B093560180915701F9
:1004000090915801A0915901B0915A010196A11DF6
:10041000B11D8093570190935801A0935901B09357
:100420005A01BF91AF919F918F913F912F910F9062
:100430000FBE0F901F90189526E8230F0296A11D5E
:10044000B11DD2CFCF93DF9300D01F92CDB7DEB7CF
:10045000789484B5826084BD84B5816084BD85B59F
:10046000826085BD85B5816085BD80916E008160AB
:1004700080936E0010928100809181008260809351
:100480008100809181008160809381008091800053
:100490008160809380008091B10084608093B1007E
:1004A0008091B00081608093B00080917A00846078
:1004B00080937A0080917A00826080937A008091A4
:1004C0007A00816080937A0080917A0080688093BE
:1004D0007A001092C10027E331E03B832A831FE2B8
:1004E000E12E11E0F12E0FE011E08FE3C82E81E044
:1004F000D82EEA81FB8180813296FB83EA8361E01A
:100500000E940001F7018081F2E0EF0EF11C61E032
:100510000E940001F80180810E5F1F4F61E00E9480
:1005200000012A813B81C216D30619F7198260E0C7
:1005300089810E94000139813F5F39833430B9F7E6
:10054000E2E52E2EE1E03E2EF7E44F2EF1E05F2EA5
:10055000A0E06A2EA0E07A2ECC24CA94DC2C80E0A5
:100560000E94A9007C0181E00E94A9005C018091A9
:100570000201882309F4AFC061E08AE00E94D20042
:1005800061E08CE00E94D200F12CE12C10E000E050
:1005900080910201882309F495C080910001909117
:1005A00001018D7FF801EE0FFF1FFB83EA83E95DF8
:1005B000FE4F80809180092C000CAA08BB080F5FB9
:1005C0001F4F037011278130910591F560E084E0A1
:1005D0000E94D200EA81FB81E95CFE4F20812983E1
:1005E00061E0822F0E94D2008A819B81815D9E4FB3
:1005F000FC01F081FA8361E08F2F0E94D200C501D7
:10060000B4010E94560160E089810E94D20060E03E
:100610008A810E94D2002FEFE21AF20A33E0E31639
:10062000F10409F0B5CFD0920101C0920001ACCF26
:10063000892B91F460E087E00E94D200EA81FB817F
:10064000E15EFE4F8081898361E00E94D200EA81F1
:10065000FB81E95EFE4FCDCFEA81FB81E95CFE4F75
:100660008081898361E00E94D200EA81FB81E15DA3
:10067000FE4FF081FA8361E08F2F0E94D200C50106
:10068000B4010E94560160E089810E94D20060E0BE
:100690008A810E94D2002FE331E03B832A83EA81E2
:1006A000FB8180813296FB83EA830E94A900019737
:1006B00019F4109202016CCF2A813B814216530635
:1006C00071F766CF109202016114710409F447CFEB
:1006D0000E94000044CF0FE311E01B821A82F80150
:1006E00080810E5F1F4F0E94A900019709F081C011
:1006F000EAE4F1E0819191912A813B81821793078D
:10070000C9F02E163F06B1F780914801909149013A
:10071000FC01EE0FFF1FE65BFE4F2A813B81318318
:100720002083019664E070E00E94D904909349010F
:10073000809348018A819B8161E08230910509F4B0
:100740009EC08330910509F4E7C0019709F45CC0AD
:1007500084E00E94D20061E087E00E94D20060E065
:100760008AE00E94D20061E08BE00E94D20060E744
:1007700077E180E090E00E94560160E08BE00E940B
:10078000D20065E0862E912C61E08AE00E94D200C2
:100790006AEF70E080E090E00E94560160E08AE03D
:1007A0000E94D2006AEF70E080E090E00E94560163
:1007B00091E0891A910841F760E08BE00E94D20035
:1007C00061E08AE00E94D2008A819B8190930101BE
:1007D0008093000191E090930201E1E0EE16F104B4
:1007E00011F40E948901F1E0AF16B10411F40E94E6
:1007F00089012A813B812F5F3F4F3B832A8324302D
:10080000310509F06CCF60CF84E00E94D20061E036
:1008100087E00E94D20060E08CE00E94D20061E09C
:100820008DE00E94D20060E777E180E090E00E94D6
:10083000560160E08DE00E94D20055E0852E912C9B
:1008400061E08CE00E94D2006AEF70E080E090E00E
:100850000E94560160E08CE00E94D2006AEF70E0D6
:1008600080E090E00E945601E1E08E1A910841F785
:1008700060E08CE00E94D20061E08DE0A3CF87E0D1
:100880000E94D20060E088E00E94D20060E089E02F
:100890000E94D20060E084E00E94D20060E085E027
:1008A0000E94D20046E0842E912C61E086E00E94F6
:1008B000D20064EF71E080E090E00E94560160E0B9
:1008C00086E00E94D20064EF71E080E090E00E9438
:1008D0005601F1E08F1A910841F761E085E00E942E
:1008E000D20060ED77E080E090E00E94560160E089
:1008F00085E00E94D20060E086E00E94D20061E0C4
:1009000084E00E94D20068EE73E080E090E00E94F4
:10091000560160E084E056CF84E00E94D20060E09F
:1009200085E00E94D20060E086E00E94D20060E094
:1009300087E00E94D20060E088E00E94D20036E0AA
:10094000832E912C61E089E00E94D20064EF71E077
:1009500080E090E00E94560160E089E00E94D200B1
:1009600064EF71E080E090E00E94560121E0821A7D
:10097000910841F761E088E00E94D20060ED77E0E5
:1009800080E090E00E94560160E088E00E94D20082
:1009900060E089E00E94D20061E087E00E94D2001E
:1009A00068EE73E080E090E00E94560160E087E02E
:1009B00009CF97FB072E16F4009407D077FD09D0D6
:1009C0000E94ED0407FC05D03EF4909581959F4F61
:1009D0000895709561957F4F0895AA1BBB1B51E147
:1009E00007C0AA1FBB1FA617B70710F0A61BB70B9F
:1009F000881F991F5A95A9F780959095BC01CD0144
:060A00000895F894FFCFF9
:100A0600FFFF0105000600080009000B000D000AA3
:100A1600000B000C000D0009000800070007000489
:100A2600000400060005001027B80B1027B80B07B6
:100A36000007000900080006000500040004000085
:080A46000001000200030000A2
:00000001FF
